:020000040800F2
:1000000000400220F5030008B9030008C1030008FE
:1000100000000000000000000000000000000000E0
:10002000000000000000000000000000C9030008FC
:100030000000000000000000D3030008DD030008FA
:10004000450400084504000845040008450400086C
:10005000450400084504000845040008450400085C
:10006000450400084504000845040008450400084C
:10007000450400084504000845040008450400083C
:10008000450400084504000845040008450400082C
:10009000450400084504000845040008450400081C
:1000A000450400084504000845040008450400080C
:0C00B00045040008450400084504000851
:1000BC0010B5064C2378002B07D1054B002B02D032
:1000CC00044800E000BF0123237010BD0C00002089
:1000DC0000000000A8140008044B10B5002B03D03E
:1000EC000349044800E000BF10BDC04600000000FA
:1000FC0010000020A8140008002243088B4274D37F
:10010C0003098B425FD3030A8B4244D3030B8B420C
:10011C0028D3030C8B420DD3FF22090212BA030C15
:10012C008B4202D31212090265D0030B8B4219D3F6
:10013C0000E0090AC30B8B4201D3CB03C01A524116
:10014C00830B8B4201D38B03C01A5241430B8B425E
:10015C0001D34B03C01A5241030B8B4201D30B0347
:10016C00C01A5241C30A8B4201D3CB02C01A52416E
:10017C00830A8B4201D38B02C01A5241430A8B4231
:10018C0001D34B02C01A5241030A8B4201D30B021A
:10019C00C01A5241CDD2C3098B4201D3CB01C01A34
:1001AC00524183098B4201D38B01C01A524143093E
:1001BC008B4201D34B01C01A524103098B4201D32C
:1001CC000B01C01A5241C3088B4201D3CB00C01A99
:1001DC00524183088B4201D38B00C01A5241430811
:1001EC008B4201D34B00C01A5241411A00D2014636
:1001FC00524110467047FFE701B5002000F006F8A9
:10020C0002BDC0460029F7D076E770477047C0465C
:10021C0080B500AF00F012F900F004F800F04AF8D5
:10022C00C046FDE790B595B000AF14243B191800FB
:10023C003C231A00002101F005F93B1D1800102386
:10024C001A00002101F0FEF880239B00180000F03A
:10025C00CFFB3B1902221A603B1980225200DA6054
:10026C003B1900221A613B1940225A613B190022AA
:10027C001A623B19180000F0FBFB031E01D000F0C2
:10028C0067F83B1D07221A603B1D00225A603B1D7C
:10029C0000229A603B1D0022DA603B1D00211800F1
:1002AC0000F046FF031E01D000F052F8C046BD46D8
:1002BC0015B090BD80B586B000AF3B1D180014235F
:1002CC001A00002101F0BEF8204B5A6B1F4B012184
:1002DC000A435A631D4B5B6B012213403B603B6826
:1002EC00C0231901A023DB050022180000F062FBDB
:1002FC003B1D0C221A603B1D02225A603B1D002242
:10030C009A603B1D0022DA603B1D01221A613A1DE6
:10031C00A023DB051100180000F0E0F93B1DC02202
:10032C0012011A603B1D01225A603B1D00229A608B
:10033C003B1D0022DA603A1DA023DB0511001800DA
:10034C0000F0CCF9C046BD4606B080BD001002409E
:10035C0080B500AF72B6C046C046FDE780B582B02E
:10036C0000AF114B1A6C104B01210A431A640E4B4F
:10037C001B6C012213407B607B680B4BDA6B0A4BC6
:10038C00802149050A43DA63074BDA6B80235B054E
:10039C0013403B603B68C023DB00180000F0D4F82E
:1003AC00C046BD4602B080BD0010024080B500AF13
:1003BC00C046FDE780B500AFC046FDE780B500AF95
:1003CC00C046BD4680BD80B500AFC046BD4680BDB1
:1003DC0080B500AF00F09CF8C046BD4680BD80B52E
:1003EC0000AFC046BD4680BD0D488546FFF7F7FF00
:1003FC000C480D490D4A002302E0D458C450043374
:10040C00C4188C42F9D30A4A0A4C002301E0136049
:10041C000432A242FBD301F01DF8FFF7F9FEFEE710
:10042C0000400220000000200C00002008150008ED
:10043C000C0000202C000020FEE7000080B582B0EC
:10044C0000AFFB1D00221A700B4B1A680A4B80215F
:10045C0049000A431A60032000F010F8031E03D071
:10046C00FB1D01221A7001E0FFF778FFFB1D1B78C2
:10047C001800BD4602B080BD0020024090B585B08A
:10048C0000AF78600F23FB1800221A701D4B1B78ED
:10049C00002B2BD01C4B1C681A4B1B781900FA2311
:1004AC009800FFF729FE030019002000FFF724FE37
:1004BC000300180000F005F9031E12D17B68032B12
:1004CC000AD8796801235B420022180000F0E4F896
:1004DC000E4B7A681A600DE00F23FB1801221A707C
:1004EC0008E00F23FB1801221A7003E00F23FB18FE
:1004FC0001221A700F23FB181B781800BD4605B09B
:10050C0090BDC04608000020000000200400002020
:10051C0080B500AF054B1B781A00054B1B68D21831
:10052C00034B1A60C046BD4680BDC0460800002083
:10053C002800002080B500AF024B1B681800BD4698
:10054C0080BDC0462800002080B582B000AF786026
:10055C00064B1B68064A13401900044B7A680A4381
:10056C001A60C046BD4602B080BDC04600000140C6
:10057C00FFF9FFFF90B583B000AF02003960FB1D9F
:10058C001A70FB1D1B787F2B28D82F4AFB1D1B785C
:10059C005BB29B08C0339B009B58FA1D127811006C
:1005AC0003220A40D200FF2191400A00D2431A4094
:1005BC0011003B689B01FF221A40FB1D1B781800A1
:1005CC0003230340DB009A401F48FB1D1B785BB2E2
:1005DC009B080A43C0339B001A5031E01B4AFB1D99
:1005EC001B7819000F230B40083B9B0806339B001C
:1005FC00D31804331B68FA1D1278110003220A4029
:10060C00D200FF2191400A00D2431A4011003B68EE
:10061C009B01FF221A40FB1D1B781800032303408B
:10062C00DB009A400948FB1D1B781C000F2323405C
:10063C00083B9B080A4306339B00C31804331A601B
:10064C00C046BD4603B090BD00E100E000ED00E007
:10065C0080B582B000AF78607B685A1E80235B0443
:10066C009A4201D3012310E00A4B7A68013A5A608E
:10067C0001235B4203211800FFF77CFF054B00228E
:10068C009A60044B07221A6000231800BD4602B082
:10069C0080BDC04610E000E080B584B000AFB9600A
:1006AC007A600F217B18021C1A70BA687B181B78B1
:1006BC005BB211001800FFF75DFFC046BD4604B0E9
:1006CC0080BD80B582B000AF78607B681800FFF702
:1006DC00BFFF03001800BD4602B080BD80B586B0D8
:1006EC0000AF7860396000237B614DE13B681B688B
:1006FC0001217A6991400A001340FB60FB68002BD2
:10070C0000D13EE13B685B6803221340012B05D00E
:10071C003B685B6803221340022B30D17B689B68DB
:10072C003B617B695B0003229A401300DA433B690F
:10073C0013403B613B68DA687B695B009A401300AD
:10074C003A6913433B617B683A699A607B685B68E2
:10075C003B6101227B699A401300DA433B691340E9
:10076C003B613B685B681B0901221A407B699A401C
:10077C0013003A6913433B617B683A695A603B68E2
:10078C005B6803221340032B17D07B68DB683B614B
:10079C007B695B0003229A401300DA433B691340E8
:1007AC003B613B689A687B695B009A4013003A692D
:1007BC0013433B617B683A69DA603B685B680322F0
:1007CC001340022B23D17B69DA087B680832920034
:1007DC00D3583B617B69072213409B000F229A4040
:1007EC001300DA433B6913403B613B681A697B6930
:1007FC0007210B409B009A4013003A6913433B615D
:10080C007B69DA087B68083292003969D1507B68C1
:10081C001B683B617B695B0003229A401300DA433F
:10082C003B6913403B613B685B6803221A407B6960
:10083C005B009A4013003A6913433B617B683A6949
:10084C001A603B685A68C0239B02134000D198E0A1
:10085C00534A7B699B0818339B009B583B617B690F
:10086C0003221340DB000F229A401300DA433B694A
:10087C0013403B617A68A023DB059A4219D07B6850
:10088C00484A934213D07B68474A93420DD07B6809
:10089C00464A934207D07B68454A934201D10423D0
:1008AC0008E0052306E0032304E0022302E0012311
:1008BC0000E000237A6903210A40D20093403A6990
:1008CC0013433B6136497B699B0818339B003A699B
:1008DC005A50334B1B683B61FB68DA433B6913404E
:1008EC003B613B685A6880235B03134003D03A6931
:1008FC00FB6813433B612A4B3A691A60284B5B68CF
:10090C003B61FB68DA433B6913403B613B685A68C7
:10091C0080239B03134003D03A69FB6813433B616C
:10092C001F4B3A695A601E4A8423D3583B61FB68BB
:10093C00DA433B6913403B613B685A6880239B0256
:10094C00134003D03A69FB6813433B61144984227A
:10095C003B698B50124A8023D3583B61FB68DA43C6
:10096C003B6913403B613B685A6880235B02134030
:10097C0003D03A69FB6813433B61094980223B6908
:10098C008B507B6901337B613B681A687B69DA4069
:10099C00131E00D0AAE6C046C046BD4606B080BDB8
:1009AC00001802400004005000080050000C0050D9
:1009BC000010005080B582B000AF786008001100C4
:1009CC00BB1C021C1A807B1C0A1C1A707B1C1B781B
:1009DC00002B04D0BB1C1A887B689A6103E0BB1CFB
:1009EC001A887B689A62C046BD4602B080BD000082
:1009FC0080B584B000AF7860194B1B68194A13405E
:100A0C001900174B7A680A431A607A6880239B0096
:100A1C009A421FD1144B1A6813005B009B185B00A1
:100A2C0012491800FFF768FB03000133FB6008E074
:100A3C00FB68002B03D0FB68013BFB6001E0032348
:100A4C0009E0074B5A698023DB001A408023DB0046
:100A5C009A42EDD000231800BD4604B080BDC046BC
:100A6C0000700040FFF9FFFF0000002040420F0023
:100A7C0080B588B000AF78607B68002B02D1012371
:100A8C0000F050FB7B681B680122134000D17CE016
:100A9C00C34B9B6838221340BB61C14BDB680322FC
:100AAC0013407B61BB69102B02D17B69032B02D0F5
:100ABC00BB69082B0BD1BA4B1A6880239B021340DD
:100ACC0062D07B685B68002B5ED101232AE37B68D4
:100ADC005A6880235B029A4207D1B14B1A68B04B1B
:100AEC00802149020A431A6020E07B685A68A023DF
:100AFC00DB029A420ED1AA4B1A68A94B8021C9027B
:100B0C000A431A60A64B1A68A54B802149020A4376
:100B1C001A600BE0A24B1A68A14BA2490A401A605A
:100B2C009F4B1A689E4BA0490A401A607B685B6811
:100B3C00002B14D0FFF7FEFC03003B6108E0FFF72D
:100B4C00F9FC02003B69D31A642B01D90323E9E2B7
:100B5C00934B1A6880239B021340F0D015E0FFF7EB
:100B6C00E9FC03003B6108E0FFF7E4FC02003B6991
:100B7C00D31A642B01D90323D4E2894B1A6880233E
:100B8C009B021340F0D100E0C0467B681B68022238
:100B9C00134000D199E0824B9B6838221340BB6113
:100BAC007F4BDB68032213407B61BB69102B02D1A6
:100BBC007B69022B02D0BB69002B35D1784B1A68AC
:100BCC008023DB00134005D07B68DB68002B01D150
:100BDC000123A7E2724B5B68744A134019007B68CF
:100BEC005B691A026E4B0A435A60BB69002B12D127
:100BFC006B4B1B686E4A134019007B681A69684B73
:100C0C000A431A60664B1B68DB0A07221340694AC9
:100C1C00DA40694B1A60694B1B681800FFF72EFC11
:100C2C00031E51D001237DE27B68DB68002B30D0A2
:100C3C005B4B1B685E4A134019007B681A69584B62
:100C4C000A431A60564B1A68554B802149000A43D7
:100C5C001A60FFF76FFC03003B6108E0FFF76AFCCA
:100C6C0002003B69D31A022B01D903235AE24C4BE5
:100C7C001A688023DB001340F0D0494B5B684B4A69
:100C8C00134019007B685B691A02454B0A435A6092
:100C9C001BE0434B1A68424B49490A401A60FFF764
:100CAC0049FC03003B6108E0FFF744FC02003B6990
:100CBC00D31A022B01D9032334E2394B1A6880234F
:100CCC00DB001340F0D100E0C0467B681B680822B3
:100CDC00134047D0324B9B6838221340182B0AD153
:100CEC002F4B1B6E022213403CD07B689B69002B60
:100CFC0038D1012316E27B689B69002B19D0284B55
:100D0C001A6E274B01210A431A66FFF713FC0300E6
:100D1C003B6108E0FFF70EFC02003B69D31A022B83
:100D2C0001D90323FEE11E4B1B6E02221340F1D0AE
:100D3C0018E01B4B1A6E1A4B01218A431A66FFF7F7
:100D4C00F9FB03003B6108E0FFF7F4FB02003B6991
:100D5C00D31A022B01D90323E4E1114B1B6E02229F
:100D6C001340F1D17B681B680422134000D1C7E00B
:100D7C001F23FB1800221A70094B9B683822134062
:100D8C00202B1FD1064BDB6D0222134000D1B7E0A4
:100D9C007B689B68002B00D0B2E00123C2E1C04607
:100DAC0000100240FFFFFEFFFFFFFBFFFF80FFFF75
:100DBC00FFC7FFFF0024F400000000200400002007
:100DCC00FFFEFFFFB54BDA6B80235B05134001D1AF
:100DDC00012300E00023002B11D0B04BDA6BAF4B9A
:100DEC00802149050A43DA63AC4BDA6B80235B053F
:100DFC001340FB60FB681F23FB1801221A70A84BE1
:100E0C001A6880235B0013401AD1A54B1A68A44BB7
:100E1C00802149000A431A60FFF78CFB03003B61F9
:100E2C0008E0FFF787FB02003B69D31A022B01D9BC
:100E3C00032377E19A4B1A6880235B001340F0D0B0
:100E4C007B689B68012B06D1944BDA6D934B012187
:100E5C000A43DA651CE07B689B68052B0CD18F4B31
:100E6C00DA6D8E4B04210A43DA658C4BDA6D8B4BB1
:100E7C0001210A43DA650BE0884BDA6D874B0121BF
:100E8C008A43DA65854BDA6D844B04218A43DA6533
:100E9C007B689B68002B14D0FFF74CFB03003B6175
:100EAC0009E0FFF747FB02003B69D31A7D4A9342E6
:100EBC0001D9032336E1794BDB6D02221340F0D0CC
:100ECC0013E0FFF737FB03003B6109E0FFF732FB50
:100EDC0002003B69D31A734A934201D9032321E1DF
:100EEC006E4BDB6D02221340F0D11F23FB181B78D5
:100EFC00012B05D1694BDA6B684B6B490A40DA63FD
:100F0C007B681B682022134039D07B68DB69002B7F
:100F1C001BD0624B1A68614B8021C9030A431A60CB
:100F2C00FFF708FB03003B6108E0FFF703FB02003F
:100F3C003B69D31A022B01D90323F3E0574B1A68F0
:100F4C0080231B041340F0D019E0544B1A68534B08
:100F5C0056490A401A60FFF7EDFA03003B6108E0BE
:100F6C00FFF7E8FA02003B69D31A022B01D90323DD
:100F7C00D8E04A4B1A6880231B041340F0D17B68DD
:100F8C001B6A002B00D1CCE0444B9B6838221340E9
:100F9C00102B00D17BE07B681B6A022B56D13F4B98
:100FAC001A683E4B42490A401A60FFF7C3FA030025
:100FBC003B6108E0FFF7BEFA02003B69D31A022B33
:100FCC0001D90323AEE0354B1A6880239B041340F0
:100FDC00F0D1324BDB68374A134019007B685A6AF0
:100FEC007B689B6A1A437B68DB6A1B021A437B682B
:100FFC001B6B1A437B685B6B1A437B689B6B1A43B6
:10100C00264B0A43DA60254B1A68244B802149048D
:10101C000A431A60214BDA68204B802149050A43A8
:10102C00DA60FFF787FA03003B6108E0FFF782FA0A
:10103C0002003B69D31A022B01D9032372E0174B30
:10104C001A6880239B041340F0D06AE0134B1A6893
:10105C00124B17490A401A60FFF76CFA03003B6108
:10106C0008E0FFF767FA02003B69D31A022B01D99B
:10107C00032357E0094B1A6880239B041340F0D1DB
:10108C00064BDA68054B0C490A40DA6049E07B688C
:10109C001B6A012B12D1012344E0C0460010024010
:1010AC000070004088130000FFFFFFEFFFFFBFFF41
:1010BC00FFFFFFFE8C80C111FCFFFEEE1B4BDB68BB
:1010CC007B617B6903221A407B685B6A9A4226D15A
:1010DC007B6970221A407B689B6A9A421FD17A699D
:1010EC00FE23DB011A407B68DB6A1B029A4216D195
:1010FC007A69F8239B031A407B681B6B9A420ED1CA
:10110C007A69E0231B051A407B685B6B9A4206D117
:10111C007B695B0F5A077B689B6B9A4201D001235A
:10112C0000E000231800BD4608B080BD001002404E
:10113C0080B584B000AF786039607B68002B01D13A
:10114C000123E9E0764B1B68072213403A689A4268
:10115C001ED9734B1B68072293431900704B3A68D6
:10116C000A431A60FFF7E6F90300FB6009E0FFF79A
:10117C00E1F90200FB68D31A6A4A934201D90323AE
:10118C00CAE0674B1B68072213403A689A42EED1BB
:10119C007B681B680222134015D07B681B680422F5
:1011AC00134006D0604B9A685F4BE021C9010A439B
:1011BC009A605D4B9B685D4A134019007B689A6886
:1011CC00594B0A439A607B681B680122134057D025
:1011DC007B685B68012B07D1534B1A6880239B02F9
:1011EC0013402BD1012397E07B685B68022B07D15E
:1011FC004D4B1A6880239B0413401FD101238BE0B5
:10120C007B685B68002B07D1474B1A688023DB0097
:10121C00134013D101237FE07B685B68032B06D15D
:10122C00414B1B6E0222134008D1012374E03E4B4C
:10123C00DB6D0222134001D101236DE03A4B9B6818
:10124C000722934319007B685A68374B0A439A600C
:10125C00FFF770F90300FB6009E0FFF76BF9020080
:10126C00FB68D31A2F4A934201D9032354E02E4B27
:10127C009B6838221A407B685B68DB009A42ECD191
:10128C00274B1B68072213403A689A421ED2244B04
:10129C001B68072293431900214B3A680A431A60D2
:1012AC00FFF748F90300FB6009E0FFF743F9020080
:1012BC00FB68D31A1B4A934201D903232CE0184B29
:1012CC001B68072213403A689A42EED17B681B6870
:1012DC000422134009D0144B9B68154A1340190083
:1012EC007B68DA68104B0A439A6000F029F8010019
:1012FC000D4B9B681B0A0F221A400E4B9200D358C1
:10130C001F2213400A00DA400B4B1A600B4B1B6870
:10131C001800FFF7B3F803001800BD4604B080BDF9
:10132C00002002408813000000100240FFF0FFFF75
:10133C00FF8FFFFFC01400080000002004000020F5
:10134C0080B586B000AF3C4B9B68382213400FD160
:10135C00394B1B68DB0A0722134001229A40130009
:10136C003B6039683548FEF7C7FE03003B615DE022
:10137C00314B9B6838221340082B02D1304B3B6118
:10138C0054E02D4B9B6838221340102B38D12A4B3C
:10139C00DB6803221340FB60274BDB681B09072229
:1013AC0013400133BB60FB68032B0DD1B968244893
:1013BC00FEF7A2FE030019001F4BDB681B0A7F22FD
:1013CC0013404B437B610DE0B9681C48FEF794FE5B
:1013DC0003001900184BDB681B0A7F2213404B4398
:1013EC007B61C046144BDB685B0F07221340013353
:1013FC007B6079687869FEF77FFE03003B6115E03E
:10140C000D4B9B6838221340202B03D180231B02E9
:10141C003B610BE0084B9B6838221340182B03D11F
:10142C00FA23DB013B6101E000233B613B691800BF
:10143C00BD4606B080BDC046001002400024F4003A
:10144C0000127A0003008218934200D17047197081
:10145C000133F9E770B500260C4C0D4D641BA4103C
:10146C00A64209D1002600F019F80A4C0A4D641B5B
:10147C00A410A64205D170BDB300EB5898470136B5
:10148C00EEE7B300EB5898470136F2E70015000879
:10149C00001500080415000800150008F8B5C04632
:1014AC00F8BC08BC9E467047F8B5C046F8BC08BCF2
:0414BC009E46704791
:1014C000000000000000000000000000000000001C
:1014D000000000000000000000000000000000000C
:1014E00001000000020000000300000004000000F2
:1014F00006000000070000000800000009000000CE
:04150000E5000008FA
:04150400BD0000081E
:0C1508000024F4000400000001000000BA
:04000005080003F5F7
:00000001FF
